:020000040000FA
:100000000C945D000C947A060C9453060C948500B5
:100010000C9485000C9485000C9485000C9485004C
:100020000C9485000C9485000C9485000C9485003C
:100030000C9485000C94F9060C9485000C948500B2
:100040000C9409060C9485000C94C7060C94A10628
:100050000C9485000C9485000C9485000C9485000C
:100060000C9420070C948500000000002400270059
:100070002A0000000000250028002B0004040404CE
:100080000404040402020202020203030303030342
:10009000010204081020408001020408102001021F
:1000A00004081020000000080002010000030407FB
:1000B00000000000000000003F0811241FBECFEF29
:1000C000D8E0DEBFCDBF11E0A0E0B1E0E0ECF9E1A7
:1000D00002C005900D92A037B107D9F722E0A0E742
:1000E000B1E001C01D92A13FB207E1F710E0CDE5FC
:1000F000D0E004C02197FE010E94D80CCC35D10776
:10010000C9F70E9487080C94DE0C0C94000090E064
:10011000FC01EC55FF4F2491FC01E057FF4F349157
:10012000FC01E458FF4FE491EE23C9F0222339F09B
:10013000233001F1A8F4213019F1223029F1F0E047
:10014000EE0FFF1FEE58FF4FA591B4918FB7F894B3
:10015000EC91611126C030953E233C938FBF0895EA
:100160002730A9F02830C9F0243049F78091800069
:100170008F7D03C0809180008F7780938000DFCFD8
:1001800084B58F7784BDDBCF84B58F7DFBCF809125
:10019000B0008F778093B000D2CF8091B0008F7D78
:1001A000F9CF3E2BDACFCF93DF9390E0FC01E057FD
:1001B000FF4F249184589F4FFC0184918823D1F0F4
:1001C00090E0880F991FFC01E859FF4FA591B49169
:1001D000FC01EE58FF4FC591D49161110EC09FB73D
:1001E000F8948C91E22FE0958E238C932881E22362
:1001F000E8839FBFDF91CF9108958FB7F894EC917A
:10020000E22BEC938FBFF6CF3FB7F8948091380282
:1002100090913902A0913A02B0913B0226B5A89B79
:1002200005C02F3F19F00196A11DB11D3FBFBA2F88
:10023000A92F982F8827BC01CD01620F711D811D48
:10024000911D42E0660F771F881F991F4A95D1F7CD
:1002500008958F929F92AF92BF92CF92DF92EF92CA
:10026000FF924B015C010E9404016B017C010E9422
:1002700004016C197D098E099F09683E7340810550
:100280009105A8F321E0821A9108A108B10888EE2F
:10029000C80E83E0D81EE11CF11C81149104A10456
:1002A000B10429F7FF90EF90DF90CF90BF90AF900F
:1002B0009F908F90089580917001909171010196A7
:1002C00090937101809370010895809170019091D5
:1002D0007101909332028093310208950895089538
:1002E0000895AF92BF92CF92DF92EF92FF920F9359
:1002F0001F93CF93DF936C017B018B01040F151FBC
:10030000EB015E01AE18BF08C017D10759F0699123
:10031000D601ED91FC910190F081E02DC601099587
:10032000892B79F7C501DF91CF911F910F91FF9034
:10033000EF90DF90CF90BF90AF900895FC01538D68
:10034000448D252F30E0842F90E0821B930B5417AF
:1003500010F0CF96089501970895FC01918D828D3C
:10036000981761F0A28DAE0FBF2FB11D5D968C91D5
:10037000928D9F5F9F73928F90E008958FEF9FEF14
:100380000895FC01918D828D981731F0828DE80FD0
:10039000F11D858D90E008958FEF9FEF0895FC018A
:1003A000918D228D892F90E0805C9F4F821B910957
:1003B0008F73992708958CE392E00E94CF0121E08A
:1003C000892B09F420E0822F089580E090E0892BAA
:1003D00029F00E94DB0181110C9400000895FC01BA
:1003E000A48DA80FB92FB11DA35ABF4F2C91848D96
:1003F00090E001968F739927848FA689B7892C93F3
:10040000A089B1898C91837080648C93938D848D45
:10041000981306C00288F389E02D80818F7D808348
:100420000895EF92FF920F931F93CF93DF93EC0108
:1004300081E0888F9B8D8C8D98131AC0E889F9898B
:10044000808185FF15C09FB7F894EE89FF8960838E
:10045000E889F98980818370806480839FBF81E00F
:1004600090E0DF91CF911F910F91FF90EF90089551
:10047000F62E0B8D10E00F5F1F4F0F731127E02E2C
:100480008C8D8E110CC00FB607FCFACFE889F98964
:10049000808185FFF5CFCE010E94EF01F1CFEB8D7A
:1004A000EC0FFD2FF11DE35AFF4FF0829FB7F89438
:1004B0000B8FEA89FB8980818062CFCFCF93DF9356
:1004C000EC01888D8823B9F0AA89BB89E889F9896C
:1004D0008C9185FD03C0808186FD0DC00FB607FCA1
:1004E000F7CF8C9185FFF2CF808185FFEDCFCE01D4
:1004F0000E94EF01E9CFDF91CF91089508952091F7
:10050000DA01260F3327331F21323105ECF4209115
:10051000FE01FC0190E080E0243069F082E0089563
:10052000A091DA012191AC0146545E4FA40FB52F82
:10053000B11D2C930196861798F38091DA01680F0C
:100540006093DA0180E0089581E008951092FE0141
:1005500081E0809300021092FF0161E082E10E943D
:10056000870061E083E10E948700E9EBF0E0808191
:100570008E7F808380818D7F808388E48093B80024
:1005800085E48093BC000895CF93DF9391E090932E
:10059000B9018823B9F0C091B800D091BA00809118
:1005A000BC008A7B8093BC0060E082E10E948700EF
:1005B00060E083E10E9487000E94A602D093BA0007
:1005C000C093B800DF91CF9108950895E0912B0278
:1005D00080912A02E81730F4F0E0EC56FE4F80815B
:1005E00090E008958FEF9FEF089590912B028091F6
:1005F0002A022FEF3FEF981748F4E92FF0E0EC566E
:10060000FE4F208130E09F5F90932B02C901089537
:1006100080912A0290912B02891B990B0895CF9209
:10062000DF92EF92FF920F931F93CF93DF937C01A2
:10063000CB018A0120919301222389F0EB016B0108
:10064000C40ED51ECC15DD0569F06991D701ED9179
:10065000FC910190F081E02DC7010995F3CF642F43
:100660000E947F02C801DF91CF911F910F91FF90EF
:10067000EF90DF90CF900895CF93DF931F92CDB787
:10068000DEB76983209193012223F9F0209128029B
:10069000203258F021E030E0FC013383228390E0E7
:1006A00080E00F90DF91CF91089580912902E82F8B
:1006B000F0E0ED58FE4F998190838F5F809329027F
:1006C0008093280281E090E0ECCF61E0CE010196BA
:1006D0000E947F02F7CFCF92DF92EF92FF920F93AB
:1006E0001F93CF93DF93FC01C48121E020939301FA
:1006F000C093720110922902109228028385682B00
:1007000089ED92E00E943C03D0912802D13208F09A
:1007100092C00E9404016B017C018091FE01811155
:1007200065C082E08093FE0181E0809300028FEF3C
:100730008093FD0110922202D0932102A3E7B1E041
:10074000E1E0F2E080E0D81385C0109223028091AE
:100750002302CC0FC82BC09323028091FF0181306C
:1007600009F07CC01092FF010E9404016B017C0122
:10077000809123028093BB008091B5019091B601D6
:10078000A091B701B091B801892B8A2B8B2B99F0DE
:100790000E9404010091B5011091B6012091B701AA
:1007A0003091B8016C197D098E099F09061717074A
:1007B00028073907E0F18091BC0083FDD9CF85EC93
:1007C0008093BC000E9404016B017C018091FE01BA
:1007D000823009F445C08091FD018F3F61F1809125
:1007E000FD01803241F18091FD0125C08091B5016C
:1007F0009091B601A091B701B091B801892B8A2BD5
:100800008B2B09F48ACF0E9404010091B50110914D
:10081000B6012091B7013091B8016C197D098E099C
:100820009F09061717072807390708F076CF809128
:10083000B4010E94C4021092290210922802109260
:100840009301DF91CF911F910F91FF90EF90DF9077
:10085000CF9008959D9191938F5F75CF85EEB0CF26
:100860008091B5019091B601A091B701B091B80106
:10087000892B8A2B8B2B09F4A9CF0E9404010091AC
:10088000B5011091B6012091B7013091B8016C19F2
:100890007D098E099F09061717072807390708F0F1
:1008A00095CFC5CF089590E080E00895FC010190B8
:1008B0000020E9F73197AF01481B590BBC0185EEC9
:1008C00092E00C9471018F929F92AF92BF920F931E
:1008D0001F93CF93DF93CDB7DEB7A1970FB6F894F0
:1008E000DEBF0FBECDBF19A2423008F44AE08E0130
:1008F0000F5D1F4F842E912CB12CA12CA5019401CA
:100900000E94A20CE62FB901CA01EA30F4F4E05DBE
:10091000D801EE938D01232B242B252B79F790E022
:1009200080E0109719F0CD010E945604A1960FB6F1
:10093000F894DEBF0FBECDBFDF91CF911F910F9115
:10094000BF90AF909F908F900895E95CE1CF0F9397
:100950001F93CF938C01C62F0E946B036C2F646092
:10096000C8010E946B036C2F6B7FC8010E946B0350
:1009700083EC90E00197F1F7CF911F910F910895CB
:100980000F931F93CF93DF938C01D62FC42F607FDB
:10099000642B0E94A70480E1D89FB00111246C2B26
:1009A000C801DF91CF911F910F910C94A70441E0F2
:1009B0000E94C00481E090E008954F925F926F9290
:1009C0007F928F929F92AF92BF92CF92DF92EF92DF
:1009D000FF920F931F93CF936B017C01742EAC0198
:1009E0009B010E94890C882399F086E391E0CF91C6
:1009F0001F910F91FF90EF90DF90CF90BF90AF903D
:100A00009F908F907F906F905F904F900C945604C2
:100A100046015701E894B7F82FEF3FEF4FE75FE744
:100A2000C501B4010E94890C81110DC02FEF3FEF69
:100A30004FE75FE7C501B4010E94BF0A18161CF416
:100A40008AE391E0D4CF2FEF3FEF4FE75FE4C70198
:100A5000B6010E94170C18161CF48EE391E0C7CF64
:100A60002FEF3FEF4FE75FECC701B6010E94BF0ACF
:100A700087FDF3CF20E030E0A901C701B6010E9455
:100A8000BF0A10E000E087FF0CC041E06DE285EE98
:100A900092E00E94C004F7FAF094F7F8F09401E0B5
:100AA00010E0C0E060E070E080E09FE37C1641F081
:100AB00020E030E040E251E40E94C40ACF5FF6CF6C
:100AC000A70196010E94530A4B015C010E94360B5C
:100AD0002B013C014AE00E946304080F191FCC233C
:100AE000C9F1C301B2010E94650B9B01AC01C501B4
:100AF000B4010E94520A4B015C0141E06EE285EEB6
:100B000092E00E94C0040F5F1F4FC15018F120E017
:100B100030E040E251E4C501B4010E941C0C2B01FD
:100B20003C010E94360B4B01B12CA12C4AE0C501BF
:100B3000B4010E946304080F191FC501B4010E948B
:100B4000650B9B01AC01C301B2010E94520A4B012B
:100B50005C01DBCFC801CF911F910F91FF90EF9007
:100B6000DF90CF90BF90AF909F908F907F906F90CD
:100B70005F904F900895682F606840E085EE92E0A6
:100B80000C94C004109271011092700140E061E079
:100B900085EE92E00E94C0048BE39FE10197F1F79C
:100BA000089585ED8093BC008091B5019091B601C8
:100BB000A091B701B091B8010796A11DB11D23E026
:100BC000B695A795979587952A95D1F72091BC0062
:100BD00024FD03C01092FE0108954091B50150918B
:100BE000B6016091B7017091B801452B462B472B98
:100BF00069F30097A105B10541F02AE22A95F1F7C2
:100C000000C00197A109B109E1CF8091B4010C9412
:100C1000C4021F920F920FB60F9211242F933F938D
:100C20008F939F93AF93BF9380913402909135023D
:100C3000A0913602B09137023091330223E0230FA6
:100C40002D3758F50196A11DB11D209333028093D5
:100C5000340290933502A0933602B093370280910C
:100C6000380290913902A0913A02B0913B0201966C
:100C7000A11DB11D8093380290933902A0933A02CE
:100C8000B0933B02BF91AF919F918F913F912F9174
:100C90000F900FBE0F901F90189526E8230F029615
:100CA000A11DB11DD2CF1F920F920FB60F9211242A
:100CB0002F933F934F935F936F937F938F939F9364
:100CC000AF93BF93EF93FF93E0910201F091030183
:100CD0000995FF91EF91BF91AF919F918F917F9176
:100CE0006F915F914F913F912F910F900FBE0F9099
:100CF0001F9018951F920F920FB60F9211242F93E9
:100D00003F934F935F936F937F938F939F93AF9393
:100D1000BF93EF93FF93E0910001F09101010995DA
:100D2000FF91EF91BF91AF919F918F917F916F91C3
:100D30005F914F913F912F910F900FBE0F901F9099
:100D400018951F920F920FB60F9211242F933F9375
:100D50004F935F936F937F938F939F93AF93BF93C3
:100D6000EF93FF938CE392E00E94EF01FF91EF91EC
:100D7000BF91AF919F918F917F916F915F914F91B3
:100D80003F912F910F900FBE0F901F9018951F92BB
:100D90000F920FB60F9211242F938F939F93EF937F
:100DA000FF93E0914C02F0914D028081E09152025C
:100DB000F091530282FD1BC09081809155028F5F9C
:100DC0008F7320915602821741F0E0915502F0E0B6
:100DD000E45CFD4F958F80935502FF91EF919F91B9
:100DE0008F912F910F900FBE0F901F9018958081BB
:100DF000F4CF1F920F920FB60F9211242F933F93AF
:100E00004F935F936F937F938F939F93AF93BF9312
:100E1000EF93FF93E0910401F09105010995FF9193
:100E2000EF91BF91AF919F918F917F916F915F9162
:100E30004F913F912F910F900FBE0F901F901895DB
:100E40001F920F920FB60F9211242F933F934F933F
:100E50005F936F937F938F939F93AF93BF93EF9322
:100E6000FF938091B900887F803609F44AC0F0F57D
:100E7000883209F4A7C018F5803109F49BC0B8F492
:100E8000882309F4F9C0883009F494C0FF91EF91E8
:100E9000BF91AF919F918F917F916F915F914F9192
:100EA0003F912F910F900FBE0F901F901895883192
:100EB00009F488C0803251F78093FD0114C080345A
:100EC00009F49DC040F48033B9F38833F9F6809378
:100ED000FD0185ECB0C0803509F485C0883509F482
:100EE00096C0883499F60E94D105D0CF883909F48C
:100EF0008CC038F5883729F050F4883611F08037E7
:100F000029F683E08093FE011092FC0157C08838D7
:100F100009F47BC0803919F0803809F0B7CF80918F
:100F2000FC01803208F071C0E091FC0181E08E0F7D
:100F30008093FC018091BB00F0E0E452FE4F80837F
:100F40003DC0803B39F0E0F4803A09F479C0883A3A
:100F500009F09CCF84E08093FE011092DB01109297
:100F6000DA01E0912602F091270209958091DA01D9
:100F700081110FC081E08093DA011092BA0109C09B
:100F8000803C09F4A6CF883C09F4A3CF883B09F044
:100F90007DCFE091DB0181E08E0F8093DB01F0E0FB
:100FA000E654FE4F80818093BB009091DB018091DD
:100FB000DA0129C0809123028093BB0085EC8093E5
:100FC000BC0064CF9091220280912102981758F5BD
:100FD000E091220281E08E0F80932202F0E0EF5F29
:100FE000FD4F8081E9CFE091220281E08E0F809356
:100FF00022028091BB00F0E0EF5FFD4F8083909173
:101000002202809121029817C8F285E8D8CFE0919A
:10101000220281E08E0F809322028091BB00F0E0DB
:10102000EF5FFD4F80838091000281115CCF81E0F2
:101030008093FF0184EA8093BC001092FE0126CFCA
:1010400085EC8093BC001092FE018091FC018032FF
:1010500030F4E091FC01F0E0E452FE4F1082609128
:10106000FC0170E0E0912402F09125028CED91E00A
:1010700009951092FC010ACF1092FD0134CFECE3E8
:10108000F2E01382128288EE93E0A0E0B0E0848365
:101090009583A683B7832AE031E03183208325EC52
:1010A00030E03587248724EC30E03787268720EC32
:1010B00030E0318B208B21EC30E0338B228B22EC23
:1010C00030E0358B248B26EC30E0378B268B118E6D
:1010D000128E138E148EE9EDF2E013821282848355
:1010E0009583A683B7838CE191E091838083E5EEBD
:1010F000F2E0138212828EE291E09183808387E294
:10110000848380E1818782E08287138608957894C2
:1011100084B5826084BD84B5816084BD85B58260FC
:1011200085BD85B5816085BD80916E0081608093AD
:101130006E00109281008091810082608093810016
:101140008091810081608093810080918000816026
:10115000809380008091B10084608093B100809181
:10116000B00081608093B00080917A0084608093A9
:101170007A0080917A00826080937A0080917A0070
:10118000816080937A0080917A00806880937A00F1
:101190001092C100E0914C02F0914D0282E08083F8
:1011A000E0914802F09149021082E0914A02F091E8
:1011B0004B028FEC808310925402E0915002F09128
:1011C000510286E08083E0914E02F0914F028081CF
:1011D00080618083E0914E02F0914F0280818860AF
:1011E0008083E0914E02F0914F028081806880837D
:1011F000E0914E02F0914F0280818F7D808380E1EB
:10120000809381001092800084ED90E3909387009A
:101210008093860083E1809381008BE591E0909339
:1012200005018093040181E080936F0060E082E01B
:101230000E94D30060E083E00E94D30082EC95E03E
:1012400090930101809300018091690083608093F5
:101250006900E89A85E691E090930301809302018A
:10126000809169008C6080936900E99A10922B024A
:1012700010922A0210922902109228020E94A602BD
:101280008EE691E090932702809326028FE691E00C
:1012900090932502809324021092EA028091EF023B
:1012A000823018F098E09093EA028093ED0262E3B6
:1012B00070E080E090E00E9429016091F00285EEEC
:1012C00092E00E946B0368EE73E080E090E00E9481
:1012D000290160E385EE92E00E94A704CBE4D6E406
:1012E000CE010197F1F760E385EE92E00E94A7043A
:1012F0002197F1F760E385EE92E00E94A70483E571
:1013000092E00197F1F760E285EE92E00E94A70477
:101310006091EA02606240E085EE92E00E94C004C3
:1013200084E08093EB0240E06CE085EE92E00E9466
:10133000C00440E061E085EE92E00E94C004CBE38F
:10134000DFE1CE010197F1F782E08093EC0240E00B
:1013500066E085EE92E00E94C00440E062E085EE27
:1013600092E00E94C0042197F1F788E08093F00298
:1013700060E085EE92E00E946B03CFB7F894809115
:101380002C02811127C0E6E8F0E08491EAE9F0E060
:101390009491E82FF0E0EE0FFF1FE859FF4FA59161
:1013A000B491EC91E92321F461E08AE00E94870086
:1013B00061E08AE00E94D3008CB580618CBD8CB561
:1013C00080648CBD61E08DE00E94D30061E08BE021
:1013D0000E94D30080912C028F5F80932C02CFBF9C
:1013E000CAE0D0E000E010E082E491E00E94560400
:1013F0008091310290913202BE010E948E0C072E24
:10140000000C880B990B0E94670B9B01AC016DECE3
:101410007CEC8CEC9EE30E94C40A26E636E646E6A7
:1014200050E40E941C0C60932D0270932E02809356
:101430002F029093300220E030E048E452E40E9412
:10144000170C18164CF580E00E94BB0582E491E071
:101450000E94560481E00E94BB0582E591E00E9453
:10146000560460912D0270912E0280912F0290916E
:10147000300242E00E94DD048AE591E00E945604B9
:101480000115110509F4B0CF0E94DB01882309F48E
:10149000ABCF0E940000A8CF80E00E94BB058FE583
:1014A00091E0D6CF5058BB27AA270E946A0A0C9415
:1014B000DD0B0E94CF0B38F00E94D60B20F039F4E0
:1014C0009F3F19F426F40C94CC0B0EF4E095E7FB47
:1014D0000C94C60BE92F0E94EE0B58F3BA17620763
:1014E00073078407950720F079F4A6F50C94100C87
:1014F0000EF4E0950B2EBA2FA02D0B01B90190012F
:101500000C01CA01A0011124FF27591B99F0593F72
:1015100050F4503E68F11A16F040A22F232F342FBA
:101520004427585FF3CF469537952795A795F04008
:101530005395C9F77EF41F16BA0B620B730B840B1D
:10154000BAF09150A1F0FF0FBB1F661F771F881FD5
:10155000C2F70EC0BA0F621F731F841F48F487952D
:1015600077956795B795F7959E3F08F0B0CF93951F
:10157000880F08F09927EE0F9795879508950E9498
:10158000A20B08F481E008950E94D80A0C94DD0BA8
:101590000E94D60B58F00E94CF0B40F029F45F3F19
:1015A00029F00C94C60B51110C94110C0C94CC0B1B
:1015B0000E94EE0B68F39923B1F3552391F3951B29
:1015C000550BBB27AA2762177307840738F09F5F64
:1015D0005F4F220F331F441FAA1FA9F335D00E2ED1
:1015E0003AF0E0E832D091505040E695001CCAF73E
:1015F0002BD0FE2F29D0660F771F881FBB1F261701
:1016000037074807AB07B0E809F0BB0B802DBF01D7
:10161000FF2793585F4F3AF09E3F510578F00C94A6
:10162000C60B0C94110C5F3FE4F3983ED4F38695FF
:1016300077956795B795F7959F5FC9F7880F911DC7
:101640009695879597F90895E1E0660F771F881FB3
:10165000BB1F621773078407BA0720F0621B730B66
:10166000840BBA0BEE1F88F7E09508950E94F60BE5
:1016700088F09F5798F0B92F9927B751B0F0E1F053
:10168000660F771F881F991F1AF0BA95C9F714C003
:10169000B13091F00E94100CB1E008950C94100C40
:1016A000672F782F8827B85F39F0B93FCCF386953C
:1016B00077956795B395D9F73EF490958095709599
:1016C00061957F4F8F4F9F4F0895E89409C097FB16
:1016D0003EF490958095709561957F4F8F4F9F4F09
:1016E0009923A9F0F92F96E9BB279395F69587954D
:1016F00077956795B795F111F8CFFAF4BB0F11F410
:1017000060FF1BC06F5F7F4F8F4F9F4F16C08823B6
:1017100011F096E911C0772321F09EE8872F762FEC
:1017200005C0662371F096E8862F70E060E02AF02D
:101730009A95660F771F881FDAF7880F9695879519
:1017400097F90895990F0008550FAA0BE0E8FEEFEE
:1017500016161706E807F907C0F012161306E40775
:10176000F50798F0621B730B840B950B39F40A266E
:1017700061F0232B242B252B21F408950A2609F44C
:10178000A140A6958FEF811D811D089597F99F6750
:1017900080E870E060E008959FEF80EC08950024F9
:1017A0000A941616170618060906089500240A94C6
:1017B00012161306140605060895092E0394000C4C
:1017C00011F4882352F0BB0F40F4BF2B11F460FFDB
:1017D00004C06F5F7F4F8F4F9F4F089557FD905804
:1017E000440F551F59F05F3F71F04795880F97FBE5
:1017F000991F61F09F3F79F087950895121613069F
:101800001406551FF2CF4695F1DF08C016161706CD
:101810001806991FF1CF8695710561050894089502
:10182000E894BB2766277727CB0197F908950E9494
:10183000A20B08F48FEF08950E942F0C0C94DD0B7F
:101840000E94CF0B38F00E94D60B20F0952311F0A8
:101850000C94C60B0C94CC0B11240C94110C0E940C
:10186000EE0B70F3959FC1F3950F50E0551F629FEB
:10187000F001729FBB27F00DB11D639FAA27F00DE9
:10188000B11DAA1F649F6627B00DA11D661F829F10
:101890002227B00DA11D621F739FB00DA11D621FF5
:1018A000839FA00D611D221F749F3327A00D611D12
:1018B000231F849F600D211D822F762F6A2F1124F4
:1018C0009F5750409AF0F1F088234AF0EE0FFF1F27
:1018D000BB1F661F771F881F91505040A9F79E3F7E
:1018E000510580F00C94C60B0C94110C5F3FE4F38F
:1018F000983ED4F3869577956795B795F795E795D4
:101900009F5FC1F7FE2B880F911D9695879597F9DC
:1019100008950E94A20B880B990B089597FB072E40
:1019200016F4009407D077FD09D00E94C40C07FC80
:1019300005D03EF4909581959F4F089570956195DF
:101940007F4F0895A1E21A2EAA1BBB1BFD010DC0FB
:10195000AA1FBB1FEE1FFF1FA217B307E407F5075F
:1019600020F0A21BB30BE40BF50B661F771F881F3B
:10197000991F1A9469F760957095809590959B01D1
:10198000AC01BD01CF010895AA1BBB1B51E107C0EB
:10199000AA1FBB1FA617B70710F0A61BB70B881FFF
:1019A000991F5A95A9F780959095BC01CD0108958E
:1019B000EE0FFF1F0590F491E02D0994F894FFCFEE
:1019C000700170017E0200000000110271019E0191
:1019D0005E02CF01AD01C101000000003C030F0316
:1019E0005304E5020803F502E60200000000D704F4
:1019F0007101530452046E616E00696E66006F7669
:101A00006600537065656420457863656564656448
:101A100021007370656564203A004B4D2F48004EDD
:101A20006F726D616C20537065656420202020000A
:107E0000112484B714BE81FFF0D085E080938100F7
:107E100082E08093C00088E18093C10086E0809377
:107E2000C20080E18093C4008EE0C9D0259A86E02C
:107E300020E33CEF91E0309385002093840096BBD3
:107E4000B09BFECF1D9AA8958150A9F7CC24DD24C4
:107E500088248394B5E0AB2EA1E19A2EF3E0BF2EE7
:107E6000A2D0813461F49FD0082FAFD0023811F036
:107E7000013811F484E001C083E08DD089C08234E0
:107E800011F484E103C0853419F485E0A6D080C0E4
:107E9000853579F488D0E82EFF2485D0082F10E0AE
:107EA000102F00270E291F29000F111F8ED06801E7
:107EB0006FC0863521F484E090D080E0DECF843638
:107EC00009F040C070D06FD0082F6DD080E0C81688
:107ED00080E7D80618F4F601B7BEE895C0E0D1E017
:107EE00062D089930C17E1F7F0E0CF16F0E7DF06D8
:107EF00018F0F601B7BEE89568D007B600FCFDCFD4
:107F0000A601A0E0B1E02C9130E011968C91119780
:107F100090E0982F8827822B932B1296FA010C0160
:107F200087BEE89511244E5F5F4FF1E0A038BF0790
:107F300051F7F601A7BEE89507B600FCFDCF97BE46
:107F4000E89526C08437B1F42ED02DD0F82E2BD052
:107F50003CD0F601EF2C8F010F5F1F4F84911BD097
:107F6000EA94F801C1F70894C11CD11CFA94CF0C13
:107F7000D11C0EC0853739F428D08EE10CD085E9AC
:107F80000AD08FE07ACF813511F488E018D01DD067
:107F900080E101D065CF982F8091C00085FFFCCF94
:107FA0009093C60008958091C00087FFFCCF809118
:107FB000C00084FD01C0A8958091C6000895E0E648
:107FC000F0E098E1908380830895EDDF803219F02E
:107FD00088E0F5DFFFCF84E1DECF1F93182FE3DFCA
:107FE0001150E9F7F2DF1F91089580E0E8DFEE27F6
:047FF000FF270994CA
:027FFE00040479
:00000001FF
