S01C0000416C6C206D7920284156522920647269766572732E7372656370
S11300000C942A000C9402040C942B040C945404B5
S11300100C9448060C941F060C9447000C9447005B
S11300200C9447000C9447000C94CD050C94A40543
S11300300C9447000C9447000C9447000C94470020
S11300400C9470030C9447000C9447000C944700E4
S11300500C94470011241FBECFE5D8E0DEBFCDBF0E
S113006010E0A0E6B0E0EAE3F1E102C005900D92F1
S1130070A23BB107D9F720E0A2EBB0E001C01D928A
S1130080AE3DB207E1F70E943E030C949B080C942A
S1130090000082E480937D0008958091BF009091D8
S11300A0C00001969093C0008093BF008091BF0070
S11300B09091C000823E9440C8F580917D008134C7
S11300C0C9F481E790E00E949B078EE690E00E94CD
S11300D09B078BE690E00E949B078AE790E00E94D2
S11300E09B0787E790E00E949B0784E790E00E94CB
S11300F080070895823409F0A6C18AE790E00E943F
S11301009B0787E790E00E949B0784E790E00E94AA
S1130110800781E790E00E9480078EE690E00E94CD
S11301209B078BE690E00E949B0708958091BF0097
S11301309091C000823E9440C9F580917D00813445
S1130140C9F481E790E00E949B078EE690E00E944C
S11301509B078BE690E00E949B078AE790E00E9451
S11301609B0787E790E00E94800784E790E00E9465
S113017080070895823409F066C181E790E00E9407
S113018080078EE690E00E9480078BE690E00E9454
S11301909B078AE790E00E949B0787E790E00E9414
S11301A0800784E790E00E94800708958091BF0053
S11301B09091C0008C3D9540C9F580917D008134BB
S11301C0C9F481E790E00E949B078EE690E00E94CC
S11301D09B078BE690E00E949B078AE790E00E94D1
S11301E09B0787E790E00E949B0784E790E00E94CA
S11301F080070895823409F026C181E790E00E94C7
S113020080078EE690E00E949B078BE690E00E94B8
S11302109B078AE790E00E949B0787E790E00E9493
S11302209B0784E790E00E94800708958091BF00B7
S11302309091C000863D9640C9F580917D0081343F
S1130240C9F481E790E00E949B078EE690E00E944B
S11302509B078BE690E00E949B078AE790E00E9450
S11302609B0787E790E00E94800784E790E00E9464
S113027080070895823409F0E6C081E790E00E9487
S113028080078EE690E00E9480078BE690E00E9453
S11302909B078AE790E00E949B0787E790E00E9413
S11302A0800784E790E00E94800708958091BF0052
S11302B09091C000803D9740C9F580917D008134C4
S11302C0C9F481E790E00E949B078EE690E00E94CB
S11302D09B078BE690E00E949B078AE790E00E94D0
S11302E09B0787E790E00E949B0784E790E00E94C9
S11302F080070895823409F0A6C081E790E00E9447
S113030080078EE690E00E949B078BE690E00E94B7
S11303109B078AE790E00E949B0787E790E00E9492
S11303209B0784E790E00E94800708958091BF00B6
S11303309091C0008A3C9840C9F580917D00813439
S1130340C9F481E790E00E949B078EE690E00E944A
S11303509B078BE690E00E949B078AE790E00E944F
S11303609B0787E790E00E94800784E790E00E9463
S113037080070895823409F066C081E790E00E9406
S113038080078EE690E00E9480078BE690E00E9452
S11303909B078AE790E00E949B0787E790E00E9412
S11303A0800784E790E00E94800708958091BF0051
S11303B09091C000843C9940C1F580917D008134C6
S11303C0C9F481E790E00E949B078EE690E00E94CA
S11303D09B078BE690E00E949B078AE790E00E94CF
S11303E0800787E790E00E949B0784E790E00E94E3
S11303F09B070895823439F581E790E00E949B07BA
S11304008EE690E00E949B078BE690E00E948007B6
S11304108AE790E00E94800787E790E00E949B07AC
S113042084E790E00E949B0708958091BF0090911B
S1130430C000863A9E4039F41092C0001092BF006A
S113044081E480937D0008958091B6008F5F80934E
S1130450B6009091B60080916200981740F0E0E6F3
S1130460F0E040E0618180810E94FC040895809165
S1130470B600803A50F0E0E6F0E041E0618180812E
S11304800E94FC041092B6000895E0E6F0E041E01A
S1130490618180810E94FC04089589E690E00E94B5
S11304A0BD0787E690E00E94BD0785E690E00E94C4
S11304B0BD0783E690E00E94BD070E94F60580E632
S11304C090E00E94B60764E272E082E00E940806AF
S11304D08AE790E00E94740787E790E00E9474071F
S11304E084E790E00E94740781E790E00E9474071B
S11304F08EE690E00E9474078BE690E00E947407F9
S11305000E94E8060E947B050E94D2030E94EB032E
S113051069E470E080E00E94EF036DE470E082E043
S11305200E948D05089589E690E00E94C407909387
S1130530BE008093BD0087E690E00E94C4079093BC
S1130540BC008093BB0085E690E00E94C4079093B2
S1130550BA008093B90083E690E00E94C4079C012E
S11305609093B8008093B7008091BD009091BE0035
S11305700A9720F481E08093B50002C01092B50080
S11305808091BB009091BC000A9720F481E0809395
S1130590B40002C01092B4009091B500913039F4C7
S11305A08091B400813019F48093B30002C010929A
S11305B0B3008091B400980F9093B2008091B90079
S11305C09091BA008A30910520F44091B3004423FD
S11305D019F02A303105E0F48CE08093620060E089
S11305E080E00E9460078EE790E00E942A0767E09F
S11305F081E00E9460078091B20062E070E0681BB5
S11306007109072E000C880B990B0E94410708956D
S11306100A97C0F48091B3008130A1F488E08093FC
S1130620620060E080E00E9460078FE890E00E9432
S11306302A0760E081E00E94600780EA90E00E945F
S11306402A07089588E08093620060E080E00E94B9
S113065060078EE790E00E942A0767E081E00E942D
S113066060078091B20062E070E0681B7109072E98
S1130670000C880B990B0E94410708950E944D02BB
S11306800E949302FDCF1092C2006115710511F111
S11306904115510509F19091C30091111FC091E0DA
S11306A09093C3007093C7006093C6005093C50035
S11306B04093C4008093C10097B1907E97B997B1DD
S11306C0892B87B986B1806486B986B1886086B97A
S11306D080E0089582E0089582E0089584E008951A
S11306E01F920F920FB60F9211242F933F934F93A3
S11306F05F936F937F938F939F93AF93BF93EF9386
S1130700FF938091C200813071F4E091C600F091B2
S1130710C70084B195B19183808386B1877F86B900
S11307201092C30027C0811125C0E091C100F0E000
S1130730EE0FFF1F8091C6009091C700E80FF91FCC
S113074084B195B19183808386B1877F86B91092F5
S1130750C3008091C1008F5F8093C100883050F442
S11307604091C4005091C5006091C6007091C700CB
S11307700E944303E091C400F091C500309709F052
S11307800995FF91EF91BF91AF919F918F917F91C7
S11307906F915F914F913F912F910F900FBE0F90EA
S11307A01F90189585B7816085BF85B7826085BF26
S11307B085B78B7F85BF85B7886085BF84B78F7BFE
S11307C084BF8BB780648BBF8BB780688BBF8BB7BC
S11307D080628BBF08958FB780688FBF08956115BD
S11307E0710561F0833060F4E82FF0E0EE0FFF1F35
S11307F0E853FF4F7183608380E0089582E0089599
S113080081E008951F920F920FB60F9211242F9337
S11308103F934F935F936F937F938F939F93AF9384
S1130820BF93EF93FF93E091C800F091C900309714
S113083009F00995FF91EF91BF91AF919F918F912D
S11308407F916F915F914F913F912F910F900FBEC8
S11308500F901F9018951F920F920FB60F921124AC
S11308602F933F934F935F936F937F938F939F93B4
S1130870AF93BF93EF93FF93E091CA00F091CB0045
S1130880309709F00995FF91EF91BF91AF919F9136
S11308908F917F916F915F914F913F912F910F9025
S11308A00FBE0F901F9018951F920F920FB60F92C4
S11308B011242F933F934F935F936F937F938F9361
S11308C09F93AF93BF93EF93FF93E091CC00F0918C
S11308D0CD00309709F00995FF91EF91BF91AF9149
S11308E09F918F917F916F915F914F913F912F9144
S11308F00F900FBE0F901F9018954423D9F14130EB
S113090009F074C0813091F028F08230D9F083303E
S113091029F16EC02AB381E090E002C0880F991FCC
S11309206A95E2F7822B8ABB80E0089527B381E0C1
S113093090E002C0880F991F6A95E2F7822B87BB6B
S113094080E0089524B381E090E002C0880F991FED
S11309506A95E2F7822B84BB80E0089521B381E09D
S113096090E002C0880F991F6A95E2F7822B81BB41
S113097080E00895813099F028F08230E9F08330E6
S113098041F138C02AB381E090E002C0880F991F7A
S11309906A95E2F7809582238ABB80E0089527B3A5
S11309A081E090E002C0880F991F6A95E2F7809574
S11309B0822387BB80E0089524B381E090E002C0E5
S11309C0880F991F6A95E2F78095822384BB80E0A3
S11309D0089521B381E090E002C0880F991F6A95C1
S11309E0E2F78095822381BB80E0089581E0089539
S11309F081E0089581E00895442319F04130E9F13C
S1130A0074C0813099F028F08230E9F0833041F1EC
S1130A106EC02BB381E090E002C0880F991F6A95E5
S1130A20E2F7809582238BBB80E0089528B381E0B0
S1130A3090E002C0880F991F6A95E2F7809582239F
S1130A4088BB80E0089525B381E090E002C0880F60
S1130A50991F6A95E2F78095822385BB80E008950B
S1130A6022B381E090E002C0880F991F6A95E2F7F3
S1130A708095822382BB80E00895813091F028F034
S1130A808230D9F0833029F134C02BB381E090E077
S1130A9002C0880F991F6A95E2F7822B8BBB80E016
S1130AA0089528B381E090E002C0880F991F6A95E9
S1130AB0E2F7822B88BB80E0089525B381E090E0C3
S1130AC002C0880F991F6A95E2F7822B85BB80E0EC
S1130AD0089522B381E090E002C0880F991F6A95BF
S1130AE0E2F7822B82BB80E0089581E0089581E0E3
S1130AF0089581E0089583B78F7B83BF83B78860AF
S1130B0083BF8AEF8CBF89B7826089BF83B7887F30
S1130B1083BF83B7846083BF08956115710581F035
S1130B20813031F47093D1006093D00080E0089557
S1130B30823041F47093CF006093CE0080E008953A
S1130B4082E0089581E008951F920F920FB60F92EC
S1130B5011242F933F934F935F936F937F938F93BE
S1130B609F93AF93BF93EF93FF93E091D000F091E5
S1130B70D100309709F00995FF91EF91BF91AF91A2
S1130B809F918F917F916F915F914F913F912F91A1
S1130B900F900FBE0F901F9018951F920F920FB6D3
S1130BA00F9211242F933F934F935F936F937F93EF
S1130BB08F939F93AF93BF93EF93FF93E091CE00F6
S1130BC0F091CF00309709F00995FF91EF91BF9113
S1130BD0AF919F918F917F916F915F914F913F91D1
S1130BE02F910F900FBE0F901F90189585B58F7B96
S1130BF085BD85B5886085BD8AEF83BD89B780686A
S1130C0089BF85B5887F85BD85B5826085BD08951A
S1130C106115710581F0813031F47093D5006093D2
S1130C20D40080E00895823041F47093D30060933F
S1130C30D20080E0089582E0089581E008951F9233
S1130C400F920FB60F9211242F933F934F935F93FC
S1130C506F937F938F939F93AF93BF93EF93FF9380
S1130C60E091D400F091D500309709F00995FF91F7
S1130C70EF91BF91AF919F918F917F916F915F9110
S1130C804F913F912F910F900FBE0F901F90189589
S1130C901F920F920FB60F9211242F933F934F93ED
S1130CA05F936F937F938F939F93AF93BF93EF93D0
S1130CB0FF93E091D200F091D300309709F00995A9
S1130CC0FF91EF91BF91AF919F918F917F916F9120
S1130CD05F914F913F912F910F900FBE0F901F90F6
S1130CE018950F931F93CF93DF9300D000D0CDB707
S1130CF0DEB7082F84E0898385E08A8386E08B83CE
S1130D0087E08C8310E014C0402F50E0012E02C015
S1130D10559547950A94E2F7E1E0F0E0EC0FFD1FEA
S1130D20E10FF11D6081417082E00E94FC041F5FAD
S1130D30143050F30F900F900F900F90DF91CF91DC
S1130D401F910F91089541E063E082E00E94FC044A
S1130D508FE39FE10197F1F700C0000040E063E0FA
S1130D6082E00E94FC040895CF93C82F40E061E024
S1130D7082E00E94FC0440E062E082E00E94FC0405
S1130D808C2F82958F700E9471060E94A3068C2F6F
S1130D900E9471060E94A306CF910895CF93C82F95
S1130DA041E061E082E00E94FC0440E062E082E015
S1130DB00E94FC048C2F82958F700E9471060E9401
S1130DC0A3068C2F0E9471060E94A306CF9108955A
S1130DD02FEF83EF91E0215080409040E1F700C075
S1130DE0000041E061E082E00E947D0441E062E0B5
S1130DF082E00E947D0441E063E082E00E947D0481
S1130E0041E064E082E00E947D0441E065E082E02C
S1130E100E947D0441E066E082E00E947D0441E09E
S1130E2067E082E00E947D0482E00E9471060E94D5
S1130E30A30682E00E9471060E94A30688E00E9435
S1130E4071060E94A3068CE00E94B40681E00E9411
S1130E50B40608950F931F93CF93009769F08C0104
S1130E60C0E003C00E94CE06CF5FF801EC0FF11D75
S1130E7080818111F7CF01C082E0CF911F910F9142
S1130E800895CF93DF93CDB7DEB760970FB6F8948C
S1130E90DEBF0FBECDBFDC01CB0140E1BE016F5F01
S1130EA07F4F0E946608CE0101960E942A07609631
S1130EB00FB6F894DEBF0FBECDBFDF91CF9108957A
S1130EC0882319F0813031F00AC080E8860F0E942F
S1130ED0B406089580EC860F0E94B406089580E855
S1130EE0860F0E94B4060895009741F0FC0141E08A
S1130EF0618180810E947D0480E0089582E00895EC
S1130F000097A9F0FC018281882319F0813041F017
S1130F1010C040E0618180810E94FC0480E008955B
S1130F2041E0618180810E94FC0480E0089582E0B8
S1130F30089581E008950097A9F0FC018281882337
S1130F4019F0813041F010C041E0618180810E943C
S1130F50FC0480E0089540E0618180810E94FC04EB
S1130F6080E0089582E0089581E0089541E0FC0165
S1130F70618180810E947D04089541E0FC016181CA
S1130F8080810E947D040895CF93DF93EC011FBC00
S1130F9088B7806288BF41E0698188810E94FC042F
S1130FA08AE68A95F1F700C040E0698188810E9451
S1130FB0FC0481EC8EBD08B605FEFDCF86B597B561
S1130FC09093DD008093DC0080E288BF81E88EBDD1
S1130FD008B605FEFDCF86B597B59093D7008093EC
S1130FE0D60080E288BF1DBC1CBC1EBC2091D6006C
S1130FF03091D7008091DC009091DD00281B390BE3
S11310003093DB002093DA00A8E2B7E80E943508A9
S113101020E038E448EE51E00E9416083093D900ED
S11310202093D800C901DF91CF910895052E97FB35
S11310301EF400940E942D0857FD07D00E94440816
S113104007FC03D04EF40C942D0850954095309530
S113105021953F4F4F4F5F4F089590958095709520
S113106061957F4F8F4F9F4F0895A29FB001B39F0B
S1131070C001A39F700D811D1124911DB29F700D9D
S1131080811D1124911D0895A1E21A2EAA1BBB1BD8
S1131090FD010DC0AA1FBB1FEE1FFF1FA217B30740
S11310A0E407F50720F0A21BB30BE40BF50B661F56
S11310B0771F881F991F1A9469F76095709580951A
S11310C090959B01AC01BD01CF010895BB274A3027
S11310D031F4992322F4BDE2909581959F4F0C94AD
S11310E07208BB27FB015527AA27880F991FAA1F3F
S11310F0A41710F0A41B83955051B9F7A05DAA332F
S113110008F0A95DA193009779F7B111B1931192F9
S1131110CB010C948B08DC01FC01672F71917723C0
S1131120E1F7329704C07C916D9370836291AE179E
S10D1130BF07C8F30895F894FFCF39
S113113A000308010601050104010301000101017C
S113114A010102010000010001010002014141768E
S113115A61696C61626C6520706C616365730050CF
S113116A61726B696E6720436F6D706C657465009C
S113117A2020202020202020202020202020202061
S105118A00005F
S9030000FC
