S01C0000416C6C206D7920284156522920647269766572732E7372656370
S11300000C942A000C9417040C9440040C94690476
S11300100C948B060C9462060C9447000C944700D5
S11300200C9447000C9447000C9410060C94E705BC
S11300300C9447000C9447000C9447000C94470020
S11300400C9485030C9447000C9447000C944700CF
S11300500C94470011241FBECFE5D8E0DEBFCDBF0E
S113006010E0A0E6B0E0E8E8F0E102C005900D92EF
S1130070A23BB107D9F720E0A2EBB0E001C01D928A
S1130080AE3CB207E1F70E9453030C9442080C946F
S1130090000082E480937D0008958091B7009091E0
S11300A0B80001969093B8008093B7008091B70090
S11300B09091B800823E9440C8F580917D008134CF
S11300C0C9F481E790E00E94EB078EE690E00E947D
S11300D0EB078BE690E00E94EB078AE790E00E9432
S11300E0EB0787E790E00E94EB0784E790E00E942B
S11300F0D0070895823409F0D6C18AE790E00E94BF
S1130100EB0787E790E00E94EB0784E790E00E940A
S1130110D00781E790E00E94D0078EE690E00E942D
S1130120EB078BE690E00E94EB0708958091B700FF
S11301309091B800823E944008F440C08091B7008A
S11301409091B8008C3D9540C8F580917D00813434
S1130150C9F481E790E00E94EB078EE690E00E94EC
S1130160EB078BE690E00E94EB078AE790E00E94A1
S1130170EB0787E790E00E94D00784E790E00E94B5
S1130180D0070895823409F08EC181E790E00E947F
S1130190D0078EE690E00E94D0078BE690E00E94A4
S11301A0EB078AE790E00E94EB0787E790E00E9464
S11301B0D00784E790E00E94D00708958091B700AB
S11301C09091B8008C3D954008F440C08091B700F0
S11301D09091B800863D9640C8F580917D008134A9
S11301E0C9F481E790E00E94EB078EE690E00E945C
S11301F0EB078BE690E00E94EB078AE790E00E9411
S1130200EB0787E790E00E94EB0784E790E00E9409
S1130210D0070895823409F046C181E790E00E9436
S1130220D0078EE690E00E94EB078BE690E00E94F8
S1130230EB078AE790E00E94EB0787E790E00E94D3
S1130240EB0784E790E00E94D00708958091B700FF
S11302509091B800863D964008F440C08091B70064
S11302609091B800803D9740C8F580917D0081341D
S1130270C9F481E790E00E94EB078EE690E00E94CB
S1130280EB078BE690E00E94EB078AE790E00E9480
S1130290EB0787E790E00E94D00784E790E00E9494
S11302A0D0070895823409F0FEC081E790E00E94EF
S11302B0D0078EE690E00E94D0078BE690E00E9483
S11302C0EB078AE790E00E94EB0787E790E00E9443
S11302D0D00784E790E00E94D00708958091B7008A
S11302E09091B800803D974008F440C08091B700D9
S11302F09091B8008A3C9840C8F580917D00813483
S1130300C9F481E790E00E94EB078EE690E00E943A
S1130310EB078BE690E00E94EB078AE790E00E94EF
S1130320EB0787E790E00E94EB0784E790E00E94E8
S1130330D0070895823409F0B6C081E790E00E94A6
S1130340D0078EE690E00E94EB078BE690E00E94D7
S1130350EB078AE790E00E94EB0787E790E00E94B2
S1130360EB0784E790E00E94D00708958091B700DE
S11303709091B8008A3C984008F440C08091B7003E
S11303809091B800843C9940C8F580917D008134F7
S1130390C9F481E790E00E94EB078EE690E00E94AA
S11303A0EB078BE690E00E94EB078AE790E00E945F
S11303B0EB0787E790E00E94D00784E790E00E9473
S11303C0D0070895823409F06EC081E790E00E945E
S11303D0D0078EE690E00E94D0078BE690E00E9462
S11303E0EB078AE790E00E94EB0787E790E00E9422
S11303F0D00784E790E00E94D00708958091B70069
S11304009091B800843C994008F43FC08091B700B3
S11304109091B800863A9E40C0F580917D00813469
S1130420C9F481E790E00E94EB078EE690E00E9419
S1130430EB078BE690E00E94EB078AE790E00E94CE
S1130440D00787E790E00E94EB0784E790E00E94E2
S1130450EB070895823439F581E790E00E94EB07B9
S11304608EE690E00E94EB078BE690E00E94D007B6
S11304708AE790E00E94D00787E790E00E94EB07AC
S113048084E790E00E94EB0708958091B700909173
S1130490B800863A9E4038F01092B8001092B70027
S11304A081E480937D0008958091B6008F5F8093EE
S11304B0B6009091B60080916A00981740F0E8E683
S11304C0F0E040E0618180810E94110508958091EF
S11304D0B600803A50F0E8E6F0E041E061818081C6
S11304E00E9411051092B6000895E8E6F0E041E09C
S11304F0618180810E94110508950E94390688E671
S113050090E00E94060886E690E00E94B40684E625
S113051090E00E94B40682E690E00E94B40680E671
S113052090E00E94B4068AE790E00E94C40787E73F
S113053090E00E94C40784E790E00E94C40781E72A
S113054090E00E94C4078EE690E00E94C4078BE608
S113055090E00E94C4070E9438070E94BE050E94D2
S1130560E7030E94000469E470E080E00E94040450
S11305706DE470E082E00E94D00564E572E082E000
S11305800E944B06089586E690E00E94BB06811106
S113059004C081E08093B50002C01092B50084E6E7
S11305A090E00E94BB06811104C081E08093B400F6
S11305B002C01092B4008091B500813039F490915A
S11305C0B400913019F49093B30002C01092B300B8
S11305D09091B400890F8093B20082E690E00E946B
S11305E0BB06811104C08091B300882331F080E6FA
S11305F090E00E94BB0681111CC088E080936A00D1
S113060060E080E00E94B0078EE790E00E947A07E5
S113061067E081E00E94B0078091B20062E070E080
S1130620681B7109072E000C880B990B0E94910717
S1130630089582E690E00E94BB06811118C0809163
S1130640B3008130A1F480E180936A0060E080E02F
S11306500E94B0078FE890E00E947A0760E081E092
S11306600E94B00780EA90E00E947A07089580E132
S113067080936A0060E080E00E94B0078EE790E01B
S11306800E947A0767E081E00E94B0078091B2007F
S113069062E070E0681B7109072E000C880B990B4F
S11306A00E94910708950E947D020E94C302FDCF1B
S11306B01092BA006115710511F14115510509F146
S11306C09091BB0091111FC091E09093BB00709377
S11306D0BF006093BE005093BD004093BC00809364
S11306E0B90097B1907E97B997B1892B87B986B134
S11306F0806486B986B1886086B980E0089582E016
S1130700089582E0089584E008951F920F920FB631
S11307100F9211242F933F934F935F936F937F9383
S11307208F939F93AF93BF93EF93FF938091BA00FE
S1130730813071F4E091BE00F091BF0084B195B1B5
S11307409183808386B1877F86B91092BB0027C0CE
S1130750811125C0E091B900F0E0EE0FFF1F8091F8
S1130760BE009091BF00E80FF91F84B195B1918349
S1130770808386B1877F86B91092BB008091B900CF
S11307808F5F8093B900883050F44091BC00509141
S1130790BD006091BE007091BF000E945803E091BB
S11307A0BC00F091BD00309709F00995FF91EF91DD
S11307B0BF91AF919F918F917F916F915F914F9175
S11307C03F912F910F900FBE0F901F90189585B7F2
S11307D0816085BF85B7826085BF85B78B7F85BF04
S11307E085B7886085BF84B78F7B84BF8BB78064EF
S11307F08BBF8BB780688BBF8BB780628BBF08952C
S11308008FB780688FBF08956115710561F08330DB
S113081060F4E82FF0E0EE0FFF1FE054FF4F718308
S1130820608380E0089582E0089581E008951F9236
S11308300F920FB60F9211242F933F934F935F9310
S11308406F937F938F939F93AF93BF93EF93FF9394
S1130850E091C000F091C100309709F00995FF9133
S1130860EF91BF91AF919F918F917F916F915F9124
S11308704F913F912F910F900FBE0F901F9018959D
S11308801F920F920FB60F9211242F933F934F9301
S11308905F936F937F938F939F93AF93BF93EF93E4
S11308A0FF93E091C200F091C300309709F00995DD
S11308B0FF91EF91BF91AF919F918F917F916F9134
S11308C05F914F913F912F910F900FBE0F901F900A
S11308D018951F920F920FB60F9211242F933F93E6
S11308E04F935F936F937F938F939F93AF93BF9334
S11308F0EF93FF93E091C400F091C500309709F0A5
S11309000995FF91EF91BF91AF919F918F917F9145
S11309106F915F914F913F912F910F900FBE0F9068
S11309201F9018954423D9F1413009F074C08130E7
S113093091F028F08230D9F0833029F16EC02AB3C7
S113094081E090E002C0880F991F6A95E2F7822B3C
S11309508ABB80E0089527B381E090E002C0880F4D
S1130960991F6A95E2F7822B87BB80E0089524B330
S113097081E090E002C0880F991F6A95E2F7822B0C
S113098084BB80E0089521B381E090E002C0880F29
S1130990991F6A95E2F7822B81BB80E0089581302C
S11309A099F028F08230E9F0833041F138C02AB35D
S11309B081E090E002C0880F991F6A95E2F7809564
S11309C082238ABB80E0089527B381E090E002C0CF
S11309D0880F991F6A95E2F78095822387BB80E090
S11309E0089524B381E090E002C0880F991F6A95AE
S11309F0E2F78095822384BB80E0089521B381E0EF
S1130A0090E002C0880F991F6A95E2F780958223CF
S1130A1081BB80E0089581E0089581E0089581E03C
S1130A200895442319F04130E9F174C0813099F0FC
S1130A3028F08230E9F0833041F16EC02BB381E0BD
S1130A4090E002C0880F991F6A95E2F7809582238F
S1130A508BBB80E0089528B381E090E002C0880F4A
S1130A60991F6A95E2F78095822388BB80E00895F8
S1130A7025B381E090E002C0880F991F6A95E2F7E0
S1130A808095822385BB80E0089522B381E090E0C5
S1130A9002C0880F991F6A95E2F78095822382BB72
S1130AA080E00895813091F028F08230D9F08330CD
S1130AB029F134C02BB381E090E002C0880F991F64
S1130AC06A95E2F7822B8BBB80E0089528B381E01E
S1130AD090E002C0880F991F6A95E2F7822B88BBC9
S1130AE080E0089525B381E090E002C0880F991F4B
S1130AF06A95E2F7822B85BB80E0089522B381E0FA
S1130B0090E002C0880F991F6A95E2F7822B82BB9E
S1130B1080E0089581E0089581E0089581E00895DA
S1130B20813079F028F08230A9F08330E1F024C0DC
S1130B3089B390E002C0959587956A95E2F7817034
S1130B40089586B390E002C0959587956A95E2F77B
S1130B508170089583B390E002C0959587956A9556
S1130B60E2F78170089580B390E002C0959587956F
S1130B706A95E2F78170089580E0089583B78F7BCA
S1130B8083BF83B7886083BF8AEF8CBF89B78260D5
S1130B9089BF83B7887F83BF83B7846083BF089589
S1130BA06115710581F0813031F47093C90060934F
S1130BB0C80080E00895823041F47093C7006093C8
S1130BC0C60080E0089582E0089581E008951F92B0
S1130BD00F920FB60F9211242F933F934F935F936D
S1130BE06F937F938F939F93AF93BF93EF93FF93F1
S1130BF0E091C800F091C900309709F00995FF9180
S1130C00EF91BF91AF919F918F917F916F915F9180
S1130C104F913F912F910F900FBE0F901F901895F9
S1130C201F920F920FB60F9211242F933F934F935D
S1130C305F936F937F938F939F93AF93BF93EF9340
S1130C40FF93E091C600F091C700309709F0099531
S1130C50FF91EF91BF91AF919F918F917F916F9190
S1130C605F914F913F912F910F900FBE0F901F9066
S1130C70189585B58F7B85BD85B5886085BD8AEF60
S1130C8083BD89B7806889BF85B5887F85BD85B5F3
S1130C90826085BD08956115710581F0813031F45C
S1130CA07093CD006093CC0080E00895823041F4CD
S1130CB07093CB006093CA0080E0089582E00895A9
S1130CC081E008951F920F920FB60F9211242F9373
S1130CD03F934F935F936F937F938F939F93AF93C0
S1130CE0BF93EF93FF93E091CC00F091CD00309748
S1130CF009F00995FF91EF91BF91AF919F918F9169
S1130D007F916F915F914F913F912F910F900FBE03
S1130D100F901F9018951F920F920FB60F921124E7
S1130D202F933F934F935F936F937F938F939F93EF
S1130D30AF93BF93EF93FF93E091CA00F091CB0080
S1130D40309709F00995FF91EF91BF91AF919F9171
S1130D508F917F916F915F914F913F912F910F9060
S1130D600FBE0F901F90189540E0FC0161818081B7
S1130D700E9492040895FC01618180810E94900583
S1130D8008950F931F93CF93DF9300D000D0CDB776
S1130D90DEB7082F84E0898385E08A8386E08B832D
S1130DA087E08C8310E014C0402F50E0012E02C075
S1130DB0559547950A94E2F7E1E0F0E0EC0FFD1F4A
S1130DC0E10FF11D6081417082E00E9411051F5FF7
S1130DD0143050F30F900F900F900F90DF91CF913C
S1130DE01F910F91089541E063E082E00E94110594
S1130DF08FE39FE10197F1F700C0000040E063E05A
S1130E0082E00E9411050895CF93C82F40E061E06D
S1130E1082E00E94110540E062E082E00E94110538
S1130E208C2F82958F700E94C1060E94F3068C2F2E
S1130E300E94C1060E94F306CF910895CF93C82F54
S1130E4041E061E082E00E94110540E062E082E05E
S1130E500E9411058C2F82958F700E94C1060E94FA
S1130E60F3068C2F0E94C1060E94F306CF910895C9
S1130E702FEF83EF91E0215080409040E1F700C0D4
S1130E80000041E061E082E00E94920441E062E0FF
S1130E9082E00E94920441E063E082E00E949204B6
S1130EA041E064E082E00E94920441E065E082E077
S1130EB00E94920441E066E082E00E94920441E0D4
S1130EC067E082E00E94920482E00E94C1060E94D0
S1130ED0F30682E00E94C1060E94F30688E00E94A5
S1130EE0C1060E94F3068CE00E94040781E00E9480
S1130EF0040708950F931F93CF93009769F08C0113
S1130F00C0E003C00E941E07CF5FF801EC0FF11D83
S1130F1080818111F7CF01C082E0CF911F910F91A1
S1130F200895CF93DF93CDB7DEB760970FB6F894EB
S1130F30DEBF0FBECDBFDC01CB0140E1BE016F5F60
S1130F407F4F0E940D08CE0101960E947A07609699
S1130F500FB6F894DEBF0FBECDBFDF91CF910895D9
S1130F60882319F0813031F00AC080E8860F0E948E
S1130F700407089580EC860F0E940407089580E812
S1130F80860F0E9404070895009741F0FC0141E098
S1130F90618180810E94920480E0089582E0089536
S1130FA00097A9F0FC018281882319F0813041F077
S1130FB010C040E0618180810E94110580E00895A5
S1130FC041E0618180810E94110580E0089582E002
S1130FD0089581E008950097A9F0FC018281882397
S1130FE019F0813041F010C041E0618180810E949C
S1130FF0110580E0089540E0618180810E9411051F
S113100080E0089582E0089581E0089541E0FC01C4
S1131010618180810E9492040895BB274A3031F493
S1131020992322F4BDE2909581959F4F0C94190861
S1131030BB27FB015527AA27880F991FAA1FA417AE
S113104010F0A41B83955051B9F7A05DAA3308F0A2
S1131050A95DA193009779F7B111B1931192CB01D6
S11310600C943208DC01FC01672F71917723E1F7BE
S1131070329704C07C916D9370836291AE17BF0761
S10B1080C8F30895F894FFCFB2
S1131088010601050104010300030801000101012F
S11310980101020100000100010100020141417641
S11310A861696C61626C6520706C61636573005082
S11310B861726B696E6720436F6D706C657465004F
S11310C82020202020202020202020202020202014
S10510D8000012
S9030000FC
